{
	"data": {
		"bytecode": {
			"linkReferences": {},
			"object": "60806040526040518060400160405280600b81526020017f48656c6c6f20576f726c640000000000000000000000000000000000000000008152505f908162000049919062000327565b5034801562000056575f80fd5b5060405162000c2a38038062000c2a83398181016040528101906200007c919062000470565b8060015f6101000a81548173ffffffffffffffffffffffffffffffffffffffff021916908373ffffffffffffffffffffffffffffffffffffffff16021790555050620004a0565b5f81519050919050565b7f4e487b71000000000000000000000000000000000000000000000000000000005f52604160045260245ffd5b7f4e487b71000000000000000000000000000000000000000000000000000000005f52602260045260245ffd5b5f60028204905060018216806200013f57607f821691505b602082108103620001555762000154620000fa565b5b50919050565b5f819050815f5260205f209050919050565b5f6020601f8301049050919050565b5f82821b905092915050565b5f60088302620001b97fffffffffffffffffffffffffffffffffffffffffffffffffffffffffffffffff826200017c565b620001c586836200017c565b95508019841693508086168417925050509392505050565b5f819050919050565b5f819050919050565b5f6200020f620002096200020384620001dd565b620001e6565b620001dd565b9050919050565b5f819050919050565b6200022a83620001ef565b62000242620002398262000216565b84845462000188565b825550505050565b5f90565b620002586200024a565b620002658184846200021f565b505050565b5b818110156200028c57620002805f826200024e565b6001810190506200026b565b5050565b601f821115620002db57620002a5816200015b565b620002b0846200016d565b81016020851015620002c0578190505b620002d8620002cf856200016d565b8301826200026a565b50505b505050565b5f82821c905092915050565b5f620002fd5f1984600802620002e0565b1980831691505092915050565b5f620003178383620002ec565b9150826002028217905092915050565b6200033282620000c3565b67ffffffffffffffff8111156200034e576200034d620000cd565b5b6200035a825462000127565b6200036782828562000290565b5f60209050601f8311600181146200039d575f841562000388578287015190505b6200039485826200030a565b86555062000403565b601f198416620003ad866200015b565b5f5b82811015620003d657848901518255600182019150602085019450602081019050620003af565b86831015620003f65784890151620003f2601f891682620002ec565b8355505b6001600288020188555050505b505050505050565b5f80fd5b5f73ffffffffffffffffffffffffffffffffffffffff82169050919050565b5f6200043a826200040f565b9050919050565b6200044c816200042e565b811462000457575f80fd5b50565b5f815190506200046a8162000441565b92915050565b5f602082840312156200048857620004876200040b565b5b5f62000497848285016200045a565b91505092915050565b61077c80620004ae5f395ff3fe608060405234801561000f575f80fd5b506004361061003f575f3560e01c8063492bfa18146100435780634d3d44d314610061578063b77bf6001461007d575b5f80fd5b61004b61009b565b6040516100589190610234565b60405180910390f35b61007b60048036038101906100769190610391565b610126565b005b6100856101a4565b60405161009291906103f0565b60405180910390f35b5f80546100a790610436565b80601f01602080910402602001604051908101604052809291908181526020018280546100d390610436565b801561011e5780601f106100f55761010080835404028352916020019161011e565b820191905f5260205f20905b81548152906001019060200180831161010157829003601f168201915b505050505081565b60015f9054906101000a900473ffffffffffffffffffffffffffffffffffffffff1673ffffffffffffffffffffffffffffffffffffffff163373ffffffffffffffffffffffffffffffffffffffff16036101a157805f90816101889190610603565b5060025f81548092919061019b906106ff565b91905055505b50565b60025481565b5f81519050919050565b5f82825260208201905092915050565b5f5b838110156101e15780820151818401526020810190506101c6565b5f8484015250505050565b5f601f19601f8301169050919050565b5f610206826101aa565b61021081856101b4565b93506102208185602086016101c4565b610229816101ec565b840191505092915050565b5f6020820190508181035f83015261024c81846101fc565b905092915050565b5f604051905090565b5f80fd5b5f80fd5b5f80fd5b5f80fd5b7f4e487b71000000000000000000000000000000000000000000000000000000005f52604160045260245ffd5b6102a3826101ec565b810181811067ffffffffffffffff821117156102c2576102c161026d565b5b80604052505050565b5f6102d4610254565b90506102e0828261029a565b919050565b5f67ffffffffffffffff8211156102ff576102fe61026d565b5b610308826101ec565b9050602081019050919050565b828183375f83830152505050565b5f610335610330846102e5565b6102cb565b90508281526020810184848401111561035157610350610269565b5b61035c848285610315565b509392505050565b5f82601f83011261037857610377610265565b5b8135610388848260208601610323565b91505092915050565b5f602082840312156103a6576103a561025d565b5b5f82013567ffffffffffffffff8111156103c3576103c2610261565b5b6103cf84828501610364565b91505092915050565b5f819050919050565b6103ea816103d8565b82525050565b5f6020820190506104035f8301846103e1565b92915050565b7f4e487b71000000000000000000000000000000000000000000000000000000005f52602260045260245ffd5b5f600282049050600182168061044d57607f821691505b6020821081036104605761045f610409565b5b50919050565b5f819050815f5260205f209050919050565b5f6020601f8301049050919050565b5f82821b905092915050565b5f600883026104c27fffffffffffffffffffffffffffffffffffffffffffffffffffffffffffffffff82610487565b6104cc8683610487565b95508019841693508086168417925050509392505050565b5f819050919050565b5f6105076105026104fd846103d8565b6104e4565b6103d8565b9050919050565b5f819050919050565b610520836104ed565b61053461052c8261050e565b848454610493565b825550505050565b5f90565b61054861053c565b610553818484610517565b505050565b5b818110156105765761056b5f82610540565b600181019050610559565b5050565b601f8211156105bb5761058c81610466565b61059584610478565b810160208510156105a4578190505b6105b86105b085610478565b830182610558565b50505b505050565b5f82821c905092915050565b5f6105db5f19846008026105c0565b1980831691505092915050565b5f6105f383836105cc565b9150826002028217905092915050565b61060c826101aa565b67ffffffffffffffff8111156106255761062461026d565b5b61062f8254610436565b61063a82828561057a565b5f60209050601f83116001811461066b575f8415610659578287015190505b61066385826105e8565b8655506106ca565b601f19841661067986610466565b5f5b828110156106a05784890151825560018201915060208501945060208101905061067b565b868310156106bd57848901516106b9601f8916826105cc565b8355505b6001600288020188555050505b505050505050565b7f4e487b71000000000000000000000000000000000000000000000000000000005f52601160045260245ffd5b5f610709826103d8565b91507fffffffffffffffffffffffffffffffffffffffffffffffffffffffffffffffff820361073b5761073a6106d2565b5b60018201905091905056fea26469706673582212205f531e6a6877bd38dd20785d752c9a624002c5d5b2b93e30519d299d1f352c8164736f6c63430008160033",
			"opcodes": "PUSH1 0x80 PUSH1 0x40 MSTORE PUSH1 0x40 MLOAD DUP1 PUSH1 0x40 ADD PUSH1 0x40 MSTORE DUP1 PUSH1 0xB DUP2 MSTORE PUSH1 0x20 ADD PUSH32 0x48656C6C6F20576F726C64000000000000000000000000000000000000000000 DUP2 MSTORE POP PUSH0 SWAP1 DUP2 PUSH3 0x49 SWAP2 SWAP1 PUSH3 0x327 JUMP JUMPDEST POP CALLVALUE DUP1 ISZERO PUSH3 0x56 JUMPI PUSH0 DUP1 REVERT JUMPDEST POP PUSH1 0x40 MLOAD PUSH3 0xC2A CODESIZE SUB DUP1 PUSH3 0xC2A DUP4 CODECOPY DUP2 DUP2 ADD PUSH1 0x40 MSTORE DUP2 ADD SWAP1 PUSH3 0x7C SWAP2 SWAP1 PUSH3 0x470 JUMP JUMPDEST DUP1 PUSH1 0x1 PUSH0 PUSH2 0x100 EXP DUP2 SLOAD DUP2 PUSH20 0xFFFFFFFFFFFFFFFFFFFFFFFFFFFFFFFFFFFFFFFF MUL NOT AND SWAP1 DUP4 PUSH20 0xFFFFFFFFFFFFFFFFFFFFFFFFFFFFFFFFFFFFFFFF AND MUL OR SWAP1 SSTORE POP POP PUSH3 0x4A0 JUMP JUMPDEST PUSH0 DUP2 MLOAD SWAP1 POP SWAP2 SWAP1 POP JUMP JUMPDEST PUSH32 0x4E487B7100000000000000000000000000000000000000000000000000000000 PUSH0 MSTORE PUSH1 0x41 PUSH1 0x4 MSTORE PUSH1 0x24 PUSH0 REVERT JUMPDEST PUSH32 0x4E487B7100000000000000000000000000000000000000000000000000000000 PUSH0 MSTORE PUSH1 0x22 PUSH1 0x4 MSTORE PUSH1 0x24 PUSH0 REVERT JUMPDEST PUSH0 PUSH1 0x2 DUP3 DIV SWAP1 POP PUSH1 0x1 DUP3 AND DUP1 PUSH3 0x13F JUMPI PUSH1 0x7F DUP3 AND SWAP2 POP JUMPDEST PUSH1 0x20 DUP3 LT DUP2 SUB PUSH3 0x155 JUMPI PUSH3 0x154 PUSH3 0xFA JUMP JUMPDEST JUMPDEST POP SWAP2 SWAP1 POP JUMP JUMPDEST PUSH0 DUP2 SWAP1 POP DUP2 PUSH0 MSTORE PUSH1 0x20 PUSH0 KECCAK256 SWAP1 POP SWAP2 SWAP1 POP JUMP JUMPDEST PUSH0 PUSH1 0x20 PUSH1 0x1F DUP4 ADD DIV SWAP1 POP SWAP2 SWAP1 POP JUMP JUMPDEST PUSH0 DUP3 DUP3 SHL SWAP1 POP SWAP3 SWAP2 POP POP JUMP JUMPDEST PUSH0 PUSH1 0x8 DUP4 MUL PUSH3 0x1B9 PUSH32 0xFFFFFFFFFFFFFFFFFFFFFFFFFFFFFFFFFFFFFFFFFFFFFFFFFFFFFFFFFFFFFFFF DUP3 PUSH3 0x17C JUMP JUMPDEST PUSH3 0x1C5 DUP7 DUP4 PUSH3 0x17C JUMP JUMPDEST SWAP6 POP DUP1 NOT DUP5 AND SWAP4 POP DUP1 DUP7 AND DUP5 OR SWAP3 POP POP POP SWAP4 SWAP3 POP POP POP JUMP JUMPDEST PUSH0 DUP2 SWAP1 POP SWAP2 SWAP1 POP JUMP JUMPDEST PUSH0 DUP2 SWAP1 POP SWAP2 SWAP1 POP JUMP JUMPDEST PUSH0 PUSH3 0x20F PUSH3 0x209 PUSH3 0x203 DUP5 PUSH3 0x1DD JUMP JUMPDEST PUSH3 0x1E6 JUMP JUMPDEST PUSH3 0x1DD JUMP JUMPDEST SWAP1 POP SWAP2 SWAP1 POP JUMP JUMPDEST PUSH0 DUP2 SWAP1 POP SWAP2 SWAP1 POP JUMP JUMPDEST PUSH3 0x22A DUP4 PUSH3 0x1EF JUMP JUMPDEST PUSH3 0x242 PUSH3 0x239 DUP3 PUSH3 0x216 JUMP JUMPDEST DUP5 DUP5 SLOAD PUSH3 0x188 JUMP JUMPDEST DUP3 SSTORE POP POP POP POP JUMP JUMPDEST PUSH0 SWAP1 JUMP JUMPDEST PUSH3 0x258 PUSH3 0x24A JUMP JUMPDEST PUSH3 0x265 DUP2 DUP5 DUP5 PUSH3 0x21F JUMP JUMPDEST POP POP POP JUMP JUMPDEST JUMPDEST DUP2 DUP2 LT ISZERO PUSH3 0x28C JUMPI PUSH3 0x280 PUSH0 DUP3 PUSH3 0x24E JUMP JUMPDEST PUSH1 0x1 DUP2 ADD SWAP1 POP PUSH3 0x26B JUMP JUMPDEST POP POP JUMP JUMPDEST PUSH1 0x1F DUP3 GT ISZERO PUSH3 0x2DB JUMPI PUSH3 0x2A5 DUP2 PUSH3 0x15B JUMP JUMPDEST PUSH3 0x2B0 DUP5 PUSH3 0x16D JUMP JUMPDEST DUP2 ADD PUSH1 0x20 DUP6 LT ISZERO PUSH3 0x2C0 JUMPI DUP2 SWAP1 POP JUMPDEST PUSH3 0x2D8 PUSH3 0x2CF DUP6 PUSH3 0x16D JUMP JUMPDEST DUP4 ADD DUP3 PUSH3 0x26A JUMP JUMPDEST POP POP JUMPDEST POP POP POP JUMP JUMPDEST PUSH0 DUP3 DUP3 SHR SWAP1 POP SWAP3 SWAP2 POP POP JUMP JUMPDEST PUSH0 PUSH3 0x2FD PUSH0 NOT DUP5 PUSH1 0x8 MUL PUSH3 0x2E0 JUMP JUMPDEST NOT DUP1 DUP4 AND SWAP2 POP POP SWAP3 SWAP2 POP POP JUMP JUMPDEST PUSH0 PUSH3 0x317 DUP4 DUP4 PUSH3 0x2EC JUMP JUMPDEST SWAP2 POP DUP3 PUSH1 0x2 MUL DUP3 OR SWAP1 POP SWAP3 SWAP2 POP POP JUMP JUMPDEST PUSH3 0x332 DUP3 PUSH3 0xC3 JUMP JUMPDEST PUSH8 0xFFFFFFFFFFFFFFFF DUP2 GT ISZERO PUSH3 0x34E JUMPI PUSH3 0x34D PUSH3 0xCD JUMP JUMPDEST JUMPDEST PUSH3 0x35A DUP3 SLOAD PUSH3 0x127 JUMP JUMPDEST PUSH3 0x367 DUP3 DUP3 DUP6 PUSH3 0x290 JUMP JUMPDEST PUSH0 PUSH1 0x20 SWAP1 POP PUSH1 0x1F DUP4 GT PUSH1 0x1 DUP2 EQ PUSH3 0x39D JUMPI PUSH0 DUP5 ISZERO PUSH3 0x388 JUMPI DUP3 DUP8 ADD MLOAD SWAP1 POP JUMPDEST PUSH3 0x394 DUP6 DUP3 PUSH3 0x30A JUMP JUMPDEST DUP7 SSTORE POP PUSH3 0x403 JUMP JUMPDEST PUSH1 0x1F NOT DUP5 AND PUSH3 0x3AD DUP7 PUSH3 0x15B JUMP JUMPDEST PUSH0 JUMPDEST DUP3 DUP2 LT ISZERO PUSH3 0x3D6 JUMPI DUP5 DUP10 ADD MLOAD DUP3 SSTORE PUSH1 0x1 DUP3 ADD SWAP2 POP PUSH1 0x20 DUP6 ADD SWAP5 POP PUSH1 0x20 DUP2 ADD SWAP1 POP PUSH3 0x3AF JUMP JUMPDEST DUP7 DUP4 LT ISZERO PUSH3 0x3F6 JUMPI DUP5 DUP10 ADD MLOAD PUSH3 0x3F2 PUSH1 0x1F DUP10 AND DUP3 PUSH3 0x2EC JUMP JUMPDEST DUP4 SSTORE POP JUMPDEST PUSH1 0x1 PUSH1 0x2 DUP9 MUL ADD DUP9 SSTORE POP POP POP JUMPDEST POP POP POP POP POP POP JUMP JUMPDEST PUSH0 DUP1 REVERT JUMPDEST PUSH0 PUSH20 0xFFFFFFFFFFFFFFFFFFFFFFFFFFFFFFFFFFFFFFFF DUP3 AND SWAP1 POP SWAP2 SWAP1 POP JUMP JUMPDEST PUSH0 PUSH3 0x43A DUP3 PUSH3 0x40F JUMP JUMPDEST SWAP1 POP SWAP2 SWAP1 POP JUMP JUMPDEST PUSH3 0x44C DUP2 PUSH3 0x42E JUMP JUMPDEST DUP2 EQ PUSH3 0x457 JUMPI PUSH0 DUP1 REVERT JUMPDEST POP JUMP JUMPDEST PUSH0 DUP2 MLOAD SWAP1 POP PUSH3 0x46A DUP2 PUSH3 0x441 JUMP JUMPDEST SWAP3 SWAP2 POP POP JUMP JUMPDEST PUSH0 PUSH1 0x20 DUP3 DUP5 SUB SLT ISZERO PUSH3 0x488 JUMPI PUSH3 0x487 PUSH3 0x40B JUMP JUMPDEST JUMPDEST PUSH0 PUSH3 0x497 DUP5 DUP3 DUP6 ADD PUSH3 0x45A JUMP JUMPDEST SWAP2 POP POP SWAP3 SWAP2 POP POP JUMP JUMPDEST PUSH2 0x77C DUP1 PUSH3 0x4AE PUSH0 CODECOPY PUSH0 RETURN INVALID PUSH1 0x80 PUSH1 0x40 MSTORE CALLVALUE DUP1 ISZERO PUSH2 0xF JUMPI PUSH0 DUP1 REVERT JUMPDEST POP PUSH1 0x4 CALLDATASIZE LT PUSH2 0x3F JUMPI PUSH0 CALLDATALOAD PUSH1 0xE0 SHR DUP1 PUSH4 0x492BFA18 EQ PUSH2 0x43 JUMPI DUP1 PUSH4 0x4D3D44D3 EQ PUSH2 0x61 JUMPI DUP1 PUSH4 0xB77BF600 EQ PUSH2 0x7D JUMPI JUMPDEST PUSH0 DUP1 REVERT JUMPDEST PUSH2 0x4B PUSH2 0x9B JUMP JUMPDEST PUSH1 0x40 MLOAD PUSH2 0x58 SWAP2 SWAP1 PUSH2 0x234 JUMP JUMPDEST PUSH1 0x40 MLOAD DUP1 SWAP2 SUB SWAP1 RETURN JUMPDEST PUSH2 0x7B PUSH1 0x4 DUP1 CALLDATASIZE SUB DUP2 ADD SWAP1 PUSH2 0x76 SWAP2 SWAP1 PUSH2 0x391 JUMP JUMPDEST PUSH2 0x126 JUMP JUMPDEST STOP JUMPDEST PUSH2 0x85 PUSH2 0x1A4 JUMP JUMPDEST PUSH1 0x40 MLOAD PUSH2 0x92 SWAP2 SWAP1 PUSH2 0x3F0 JUMP JUMPDEST PUSH1 0x40 MLOAD DUP1 SWAP2 SUB SWAP1 RETURN JUMPDEST PUSH0 DUP1 SLOAD PUSH2 0xA7 SWAP1 PUSH2 0x436 JUMP JUMPDEST DUP1 PUSH1 0x1F ADD PUSH1 0x20 DUP1 SWAP2 DIV MUL PUSH1 0x20 ADD PUSH1 0x40 MLOAD SWAP1 DUP2 ADD PUSH1 0x40 MSTORE DUP1 SWAP3 SWAP2 SWAP1 DUP2 DUP2 MSTORE PUSH1 0x20 ADD DUP3 DUP1 SLOAD PUSH2 0xD3 SWAP1 PUSH2 0x436 JUMP JUMPDEST DUP1 ISZERO PUSH2 0x11E JUMPI DUP1 PUSH1 0x1F LT PUSH2 0xF5 JUMPI PUSH2 0x100 DUP1 DUP4 SLOAD DIV MUL DUP4 MSTORE SWAP2 PUSH1 0x20 ADD SWAP2 PUSH2 0x11E JUMP JUMPDEST DUP3 ADD SWAP2 SWAP1 PUSH0 MSTORE PUSH1 0x20 PUSH0 KECCAK256 SWAP1 JUMPDEST DUP2 SLOAD DUP2 MSTORE SWAP1 PUSH1 0x1 ADD SWAP1 PUSH1 0x20 ADD DUP1 DUP4 GT PUSH2 0x101 JUMPI DUP3 SWAP1 SUB PUSH1 0x1F AND DUP3 ADD SWAP2 JUMPDEST POP POP POP POP POP DUP2 JUMP JUMPDEST PUSH1 0x1 PUSH0 SWAP1 SLOAD SWAP1 PUSH2 0x100 EXP SWAP1 DIV PUSH20 0xFFFFFFFFFFFFFFFFFFFFFFFFFFFFFFFFFFFFFFFF AND PUSH20 0xFFFFFFFFFFFFFFFFFFFFFFFFFFFFFFFFFFFFFFFF AND CALLER PUSH20 0xFFFFFFFFFFFFFFFFFFFFFFFFFFFFFFFFFFFFFFFF AND SUB PUSH2 0x1A1 JUMPI DUP1 PUSH0 SWAP1 DUP2 PUSH2 0x188 SWAP2 SWAP1 PUSH2 0x603 JUMP JUMPDEST POP PUSH1 0x2 PUSH0 DUP2 SLOAD DUP1 SWAP3 SWAP2 SWAP1 PUSH2 0x19B SWAP1 PUSH2 0x6FF JUMP JUMPDEST SWAP2 SWAP1 POP SSTORE POP JUMPDEST POP JUMP JUMPDEST PUSH1 0x2 SLOAD DUP2 JUMP JUMPDEST PUSH0 DUP2 MLOAD SWAP1 POP SWAP2 SWAP1 POP JUMP JUMPDEST PUSH0 DUP3 DUP3 MSTORE PUSH1 0x20 DUP3 ADD SWAP1 POP SWAP3 SWAP2 POP POP JUMP JUMPDEST PUSH0 JUMPDEST DUP4 DUP2 LT ISZERO PUSH2 0x1E1 JUMPI DUP1 DUP3 ADD MLOAD DUP2 DUP5 ADD MSTORE PUSH1 0x20 DUP2 ADD SWAP1 POP PUSH2 0x1C6 JUMP JUMPDEST PUSH0 DUP5 DUP5 ADD MSTORE POP POP POP POP JUMP JUMPDEST PUSH0 PUSH1 0x1F NOT PUSH1 0x1F DUP4 ADD AND SWAP1 POP SWAP2 SWAP1 POP JUMP JUMPDEST PUSH0 PUSH2 0x206 DUP3 PUSH2 0x1AA JUMP JUMPDEST PUSH2 0x210 DUP2 DUP6 PUSH2 0x1B4 JUMP JUMPDEST SWAP4 POP PUSH2 0x220 DUP2 DUP6 PUSH1 0x20 DUP7 ADD PUSH2 0x1C4 JUMP JUMPDEST PUSH2 0x229 DUP2 PUSH2 0x1EC JUMP JUMPDEST DUP5 ADD SWAP2 POP POP SWAP3 SWAP2 POP POP JUMP JUMPDEST PUSH0 PUSH1 0x20 DUP3 ADD SWAP1 POP DUP2 DUP2 SUB PUSH0 DUP4 ADD MSTORE PUSH2 0x24C DUP2 DUP5 PUSH2 0x1FC JUMP JUMPDEST SWAP1 POP SWAP3 SWAP2 POP POP JUMP JUMPDEST PUSH0 PUSH1 0x40 MLOAD SWAP1 POP SWAP1 JUMP JUMPDEST PUSH0 DUP1 REVERT JUMPDEST PUSH0 DUP1 REVERT JUMPDEST PUSH0 DUP1 REVERT JUMPDEST PUSH0 DUP1 REVERT JUMPDEST PUSH32 0x4E487B7100000000000000000000000000000000000000000000000000000000 PUSH0 MSTORE PUSH1 0x41 PUSH1 0x4 MSTORE PUSH1 0x24 PUSH0 REVERT JUMPDEST PUSH2 0x2A3 DUP3 PUSH2 0x1EC JUMP JUMPDEST DUP2 ADD DUP2 DUP2 LT PUSH8 0xFFFFFFFFFFFFFFFF DUP3 GT OR ISZERO PUSH2 0x2C2 JUMPI PUSH2 0x2C1 PUSH2 0x26D JUMP JUMPDEST JUMPDEST DUP1 PUSH1 0x40 MSTORE POP POP POP JUMP JUMPDEST PUSH0 PUSH2 0x2D4 PUSH2 0x254 JUMP JUMPDEST SWAP1 POP PUSH2 0x2E0 DUP3 DUP3 PUSH2 0x29A JUMP JUMPDEST SWAP2 SWAP1 POP JUMP JUMPDEST PUSH0 PUSH8 0xFFFFFFFFFFFFFFFF DUP3 GT ISZERO PUSH2 0x2FF JUMPI PUSH2 0x2FE PUSH2 0x26D JUMP JUMPDEST JUMPDEST PUSH2 0x308 DUP3 PUSH2 0x1EC JUMP JUMPDEST SWAP1 POP PUSH1 0x20 DUP2 ADD SWAP1 POP SWAP2 SWAP1 POP JUMP JUMPDEST DUP3 DUP2 DUP4 CALLDATACOPY PUSH0 DUP4 DUP4 ADD MSTORE POP POP POP JUMP JUMPDEST PUSH0 PUSH2 0x335 PUSH2 0x330 DUP5 PUSH2 0x2E5 JUMP JUMPDEST PUSH2 0x2CB JUMP JUMPDEST SWAP1 POP DUP3 DUP2 MSTORE PUSH1 0x20 DUP2 ADD DUP5 DUP5 DUP5 ADD GT ISZERO PUSH2 0x351 JUMPI PUSH2 0x350 PUSH2 0x269 JUMP JUMPDEST JUMPDEST PUSH2 0x35C DUP5 DUP3 DUP6 PUSH2 0x315 JUMP JUMPDEST POP SWAP4 SWAP3 POP POP POP JUMP JUMPDEST PUSH0 DUP3 PUSH1 0x1F DUP4 ADD SLT PUSH2 0x378 JUMPI PUSH2 0x377 PUSH2 0x265 JUMP JUMPDEST JUMPDEST DUP2 CALLDATALOAD PUSH2 0x388 DUP5 DUP3 PUSH1 0x20 DUP7 ADD PUSH2 0x323 JUMP JUMPDEST SWAP2 POP POP SWAP3 SWAP2 POP POP JUMP JUMPDEST PUSH0 PUSH1 0x20 DUP3 DUP5 SUB SLT ISZERO PUSH2 0x3A6 JUMPI PUSH2 0x3A5 PUSH2 0x25D JUMP JUMPDEST JUMPDEST PUSH0 DUP3 ADD CALLDATALOAD PUSH8 0xFFFFFFFFFFFFFFFF DUP2 GT ISZERO PUSH2 0x3C3 JUMPI PUSH2 0x3C2 PUSH2 0x261 JUMP JUMPDEST JUMPDEST PUSH2 0x3CF DUP5 DUP3 DUP6 ADD PUSH2 0x364 JUMP JUMPDEST SWAP2 POP POP SWAP3 SWAP2 POP POP JUMP JUMPDEST PUSH0 DUP2 SWAP1 POP SWAP2 SWAP1 POP JUMP JUMPDEST PUSH2 0x3EA DUP2 PUSH2 0x3D8 JUMP JUMPDEST DUP3 MSTORE POP POP JUMP JUMPDEST PUSH0 PUSH1 0x20 DUP3 ADD SWAP1 POP PUSH2 0x403 PUSH0 DUP4 ADD DUP5 PUSH2 0x3E1 JUMP JUMPDEST SWAP3 SWAP2 POP POP JUMP JUMPDEST PUSH32 0x4E487B7100000000000000000000000000000000000000000000000000000000 PUSH0 MSTORE PUSH1 0x22 PUSH1 0x4 MSTORE PUSH1 0x24 PUSH0 REVERT JUMPDEST PUSH0 PUSH1 0x2 DUP3 DIV SWAP1 POP PUSH1 0x1 DUP3 AND DUP1 PUSH2 0x44D JUMPI PUSH1 0x7F DUP3 AND SWAP2 POP JUMPDEST PUSH1 0x20 DUP3 LT DUP2 SUB PUSH2 0x460 JUMPI PUSH2 0x45F PUSH2 0x409 JUMP JUMPDEST JUMPDEST POP SWAP2 SWAP1 POP JUMP JUMPDEST PUSH0 DUP2 SWAP1 POP DUP2 PUSH0 MSTORE PUSH1 0x20 PUSH0 KECCAK256 SWAP1 POP SWAP2 SWAP1 POP JUMP JUMPDEST PUSH0 PUSH1 0x20 PUSH1 0x1F DUP4 ADD DIV SWAP1 POP SWAP2 SWAP1 POP JUMP JUMPDEST PUSH0 DUP3 DUP3 SHL SWAP1 POP SWAP3 SWAP2 POP POP JUMP JUMPDEST PUSH0 PUSH1 0x8 DUP4 MUL PUSH2 0x4C2 PUSH32 0xFFFFFFFFFFFFFFFFFFFFFFFFFFFFFFFFFFFFFFFFFFFFFFFFFFFFFFFFFFFFFFFF DUP3 PUSH2 0x487 JUMP JUMPDEST PUSH2 0x4CC DUP7 DUP4 PUSH2 0x487 JUMP JUMPDEST SWAP6 POP DUP1 NOT DUP5 AND SWAP4 POP DUP1 DUP7 AND DUP5 OR SWAP3 POP POP POP SWAP4 SWAP3 POP POP POP JUMP JUMPDEST PUSH0 DUP2 SWAP1 POP SWAP2 SWAP1 POP JUMP JUMPDEST PUSH0 PUSH2 0x507 PUSH2 0x502 PUSH2 0x4FD DUP5 PUSH2 0x3D8 JUMP JUMPDEST PUSH2 0x4E4 JUMP JUMPDEST PUSH2 0x3D8 JUMP JUMPDEST SWAP1 POP SWAP2 SWAP1 POP JUMP JUMPDEST PUSH0 DUP2 SWAP1 POP SWAP2 SWAP1 POP JUMP JUMPDEST PUSH2 0x520 DUP4 PUSH2 0x4ED JUMP JUMPDEST PUSH2 0x534 PUSH2 0x52C DUP3 PUSH2 0x50E JUMP JUMPDEST DUP5 DUP5 SLOAD PUSH2 0x493 JUMP JUMPDEST DUP3 SSTORE POP POP POP POP JUMP JUMPDEST PUSH0 SWAP1 JUMP JUMPDEST PUSH2 0x548 PUSH2 0x53C JUMP JUMPDEST PUSH2 0x553 DUP2 DUP5 DUP5 PUSH2 0x517 JUMP JUMPDEST POP POP POP JUMP JUMPDEST JUMPDEST DUP2 DUP2 LT ISZERO PUSH2 0x576 JUMPI PUSH2 0x56B PUSH0 DUP3 PUSH2 0x540 JUMP JUMPDEST PUSH1 0x1 DUP2 ADD SWAP1 POP PUSH2 0x559 JUMP JUMPDEST POP POP JUMP JUMPDEST PUSH1 0x1F DUP3 GT ISZERO PUSH2 0x5BB JUMPI PUSH2 0x58C DUP2 PUSH2 0x466 JUMP JUMPDEST PUSH2 0x595 DUP5 PUSH2 0x478 JUMP JUMPDEST DUP2 ADD PUSH1 0x20 DUP6 LT ISZERO PUSH2 0x5A4 JUMPI DUP2 SWAP1 POP JUMPDEST PUSH2 0x5B8 PUSH2 0x5B0 DUP6 PUSH2 0x478 JUMP JUMPDEST DUP4 ADD DUP3 PUSH2 0x558 JUMP JUMPDEST POP POP JUMPDEST POP POP POP JUMP JUMPDEST PUSH0 DUP3 DUP3 SHR SWAP1 POP SWAP3 SWAP2 POP POP JUMP JUMPDEST PUSH0 PUSH2 0x5DB PUSH0 NOT DUP5 PUSH1 0x8 MUL PUSH2 0x5C0 JUMP JUMPDEST NOT DUP1 DUP4 AND SWAP2 POP POP SWAP3 SWAP2 POP POP JUMP JUMPDEST PUSH0 PUSH2 0x5F3 DUP4 DUP4 PUSH2 0x5CC JUMP JUMPDEST SWAP2 POP DUP3 PUSH1 0x2 MUL DUP3 OR SWAP1 POP SWAP3 SWAP2 POP POP JUMP JUMPDEST PUSH2 0x60C DUP3 PUSH2 0x1AA JUMP JUMPDEST PUSH8 0xFFFFFFFFFFFFFFFF DUP2 GT ISZERO PUSH2 0x625 JUMPI PUSH2 0x624 PUSH2 0x26D JUMP JUMPDEST JUMPDEST PUSH2 0x62F DUP3 SLOAD PUSH2 0x436 JUMP JUMPDEST PUSH2 0x63A DUP3 DUP3 DUP6 PUSH2 0x57A JUMP JUMPDEST PUSH0 PUSH1 0x20 SWAP1 POP PUSH1 0x1F DUP4 GT PUSH1 0x1 DUP2 EQ PUSH2 0x66B JUMPI PUSH0 DUP5 ISZERO PUSH2 0x659 JUMPI DUP3 DUP8 ADD MLOAD SWAP1 POP JUMPDEST PUSH2 0x663 DUP6 DUP3 PUSH2 0x5E8 JUMP JUMPDEST DUP7 SSTORE POP PUSH2 0x6CA JUMP JUMPDEST PUSH1 0x1F NOT DUP5 AND PUSH2 0x679 DUP7 PUSH2 0x466 JUMP JUMPDEST PUSH0 JUMPDEST DUP3 DUP2 LT ISZERO PUSH2 0x6A0 JUMPI DUP5 DUP10 ADD MLOAD DUP3 SSTORE PUSH1 0x1 DUP3 ADD SWAP2 POP PUSH1 0x20 DUP6 ADD SWAP5 POP PUSH1 0x20 DUP2 ADD SWAP1 POP PUSH2 0x67B JUMP JUMPDEST DUP7 DUP4 LT ISZERO PUSH2 0x6BD JUMPI DUP5 DUP10 ADD MLOAD PUSH2 0x6B9 PUSH1 0x1F DUP10 AND DUP3 PUSH2 0x5CC JUMP JUMPDEST DUP4 SSTORE POP JUMPDEST PUSH1 0x1 PUSH1 0x2 DUP9 MUL ADD DUP9 SSTORE POP POP POP JUMPDEST POP POP POP POP POP POP JUMP JUMPDEST PUSH32 0x4E487B7100000000000000000000000000000000000000000000000000000000 PUSH0 MSTORE PUSH1 0x11 PUSH1 0x4 MSTORE PUSH1 0x24 PUSH0 REVERT JUMPDEST PUSH0 PUSH2 0x709 DUP3 PUSH2 0x3D8 JUMP JUMPDEST SWAP2 POP PUSH32 0xFFFFFFFFFFFFFFFFFFFFFFFFFFFFFFFFFFFFFFFFFFFFFFFFFFFFFFFFFFFFFFFF DUP3 SUB PUSH2 0x73B JUMPI PUSH2 0x73A PUSH2 0x6D2 JUMP JUMPDEST JUMPDEST PUSH1 0x1 DUP3 ADD SWAP1 POP SWAP2 SWAP1 POP JUMP INVALID LOG2 PUSH5 0x6970667358 0x22 SLT KECCAK256 PUSH0 MSTORE8 0x1E PUSH11 0x6877BD38DD20785D752C9A PUSH3 0x4002C5 0xD5 0xB2 0xB9 RETURNDATACOPY ADDRESS MLOAD SWAP14 0x29 SWAP14 0x1F CALLDATALOAD 0x2C DUP2 PUSH5 0x736F6C6343 STOP ADDMOD AND STOP CALLER "
		},
		"gasEstimates": {
			"creation": {
				"codeDepositCost": "383200",
				"executionCost": "infinite",
				"totalCost": "infinite"
			},
			"external": {
				"myString()": "infinite",
				"transactionCount()": "2447",
				"updatemyString(string)": "infinite"
			}
		},
		"methodIdentifiers": {
			"myString()": "492bfa18",
			"transactionCount()": "b77bf600",
			"updatemyString(string)": "4d3d44d3"
		}
	},
	"abi": [
		{
			"inputs": [
				{
					"internalType": "address",
					"name": "_myAddress",
					"type": "address"
				}
			],
			"stateMutability": "nonpayable",
			"type": "constructor"
		},
		{
			"inputs": [],
			"name": "myString",
			"outputs": [
				{
					"internalType": "string",
					"name": "",
					"type": "string"
				}
			],
			"stateMutability": "view",
			"type": "function"
		},
		{
			"inputs": [],
			"name": "transactionCount",
			"outputs": [
				{
					"internalType": "uint256",
					"name": "",
					"type": "uint256"
				}
			],
			"stateMutability": "view",
			"type": "function"
		},
		{
			"inputs": [
				{
					"internalType": "string",
					"name": "_mystring",
					"type": "string"
				}
			],
			"name": "updatemyString",
			"outputs": [],
			"stateMutability": "nonpayable",
			"type": "function"
		}
	]
}